:020000040000fa
:040010002a070000bb
:020000040000fa
:040154002a07000076
:020000040000fa
:040110002a070000ba
:020000040000fa
:040194002a07000036
:020000040000fa
:0401c0002a0700000a
:020000040000fa
:040164002a07000066
:020000040000fa
:0401cc002a070000fe
:020000040000fa
:0401d4002a070000f6
:020000040000fa
:0401d8002a070000f2
:020000040000fa
:04012c002a0700009e
:020000040000fa
:040138002a07000092
:020000040000fa
:040198002a07000032
:020000040000fa
:04019c002a0700002e
:020000040000fa
:0401a0002a0700002a
:020000040000fa
:0401a4002a07000026
:020000040000fa
:04016c002a0700005e
:020000040000fa
:040170002a0700005a
:020000040000fa
:040128002a070000a2
:020000040000fa
:040168002a07000062
:020000040000fa
:040184002a07000046
:020000040000fa
:0401b8002a07000012
:020000040000fa
:0401bc002a0700000e
:020000040000fa
:0401d0002a070000fa
:020000040000fa
:040160002a0700006a
:020000040000fa
:040118002a070000b2
:020000040000fa
:040158002a07000072
:020000040000fa
:040130002a0700009a
:020000040000fa
:04013c002a0700008e
:020000040000fa
:040174002a07000056
:020000040000fa
:040178002a07000052
:020000040000fa
:0401a8002a07000022
:020000040000fa
:0401ac002a0700001e
:020000040000fa
:0401b0002a0700001a
:020000040000fa
:0401b4002a07000016
:020000040000fa
:04010c002a070000be
:020000040000fa
:0401c4002a07000006
:020000040000fa
:0401c8002a07000002
:020000040000fa
:040108002a070000c2
:020000040000fa
:04011c002a070000ae
:020000040000fa
:040120002a070000aa
:020000040000fa
:040124002a070000a6
:020000040000fa
:04015c002a0700006e
:020000040000fa
:040148002a07000082
:020000040000fa
:040190002a0700003a
:020000040000fa
:040114002a070000b6
:020000040000fa
:040134002a07000096
:020000040000fa
:040140002a0700008a
:020000040000fa
:040144002a07000086
:020000040000fa
:04017c002a0700004e
:020000040000fa
:040180002a0700004a
:020000040000fa
:04014c002a0700007e
:020000040000fa
:040150002a0700007a
:020000040000fa
:040188002a07000042
:020000040000fa
:04018c002a0700003e
:020000040000fa
:040094002a07000037
:020000040000fa
:0400c0002a0700000b
:020000040000fa
:040064002a07000067
:020000040000fa
:0400d4002a070000f7
:020000040000fa
:0400d8002a070000f3
:020000040000fa
:04002c002a0700009f
:020000040000fa
:040038002a07000093
:020000040000fa
:040098002a07000033
:020000040000fa
:04009c002a0700002f
:020000040000fa
:0400a0002a0700002b
:020000040000fa
:0400a4002a07000027
:020000040000fa
:04006c002a0700005f
:020000040000fa
:040070002a0700005b
:020000040000fa
:040068002a07000063
:020000040000fa
:040084002a07000047
:020000040000fa
:0400b8002a07000013
:020000040000fa
:0400bc002a0700000f
:020000040000fa
:0400d0002a070000fb
:020000040000fa
:040018002a070000b3
:020000040000fa
:040058002a07000073
:020000040000fa
:040030002a0700009b
:020000040000fa
:04003c002a0700008f
:020000040000fa
:040074002a07000057
:020000040000fa
:040078002a07000053
:020000040000fa
:0400a8002a07000023
:020000040000fa
:0400ac002a0700001f
:020000040000fa
:0400b0002a0700001b
:020000040000fa
:0400b4002a07000017
:020000040000fa
:04000c002a070000bf
:020000040000fa
:0400c4002a07000007
:020000040000fa
:0400c8002a07000003
:020000040000fa
:040008002a070000c3
:020000040000fa
:04001c002a070000af
:020000040000fa
:040020002a070000ab
:020000040000fa
:040024002a070000a7
:020000040000fa
:04005c002a0700006f
:020000040000fa
:040048002a07000083
:020000040000fa
:040090002a0700003b
:020000040000fa
:040014002a070000b7
:020000040000fa
:040034002a07000097
:020000040000fa
:040044002a07000087
:020000040000fa
:080000000001040000000000f3
:020000040000fa
:10020000cf1822000e7f22000e018800000000009f
:10021000000020000000e000020032000001200089
:100220002002880014000700350307000000e000ea
:1002300003003a00200e24001100200002003700c5
:100240000000200001002000810f7000010032003a
:1002500014000700000020000000e000020032004f
:100260000000020000000000e4080200010000009d
:100270000040da000000fe004440a90060132100a5
:100280000000e0000300320000002000a001880010
:100290004440a800000006008a1f78008b1f7800e9
:1002a0000000060091018800800478000000eb0047
:1002b0001a003700e284440032a0b4009905ba0065
:1002c000e284440032a0b4009906ba00e2844400fb
:1002d00032a0b4000006eb00476fde00fd07b2005d
:1002e000636ce10003003a00ebff07000000eb0045
:1002f0000a003700606ce10004003a00005deb008a
:100300008b05e900fdff3e00040037006168e10055
:10031000010032000086eb000b00070019c7ba008d
:100320001905ba000e04e00003003a000a00e000dc
:10033000e0ff3a0000000600fe07b2009e018800c0
:100340008a047800f5ff3700395dba008b05e900b3
:100350000c003200295dba008b05e900080032006c
:100360000c00e00003003a00e284440032a0b40034
:10037000f5ff370019ddba008b05e900faff3a00f6
:100380008904e800e184440032a0b40000000600c3
:10039000d816040001000000da4f0400010000003c
:1003a0005c16040001000000bc4d040001000000c8
:1003b000e8130400010000005e4404000100000096
:1003c0003245040001000000045e0400010000004a
:1003d0008a110400000000004c1a04000000000014
:1003e000809fbe00829fbe003400f8000000200005
:1003f000a00188000200fa00e09d21008040eb008f
:1004000001487800f09d21008040eb000148780011
:100410008560a900409e210090407800f0c3b300a1
:1004200080cf500005003e00409e21001040780023
:100430008040e800409e21000148780030cf8000d5
:10044000e10f40000300320030cf80000000e800e0
:1004500030cf8800009e2100104078000004e000aa
:100460002900320000282000000f780090cd800085
:100470009e0078009100780000014000e0622100b9
:1004800000004100010878001e8fe80090cd800038
:100490009e007800910078004006b0000001400006
:1004a000e062210000004100010878001e8fe80092
:1004b00090cd80009e00780091007800800cb00004
:1004c00000014000e06221000000410001087800c6
:1004d0001e8fe80090cd80000000e80090cd8800dd
:1004e00091cd800030062000808f5000e101360061
:1004f0000000eb0090cd8800f09d210011c0b300fa
:1005000001487800db013700a1e2a900c00120000a
:10051000501588001115800030fc2f00008060000d
:100520000030a000101588002115800000fc2f006d
:10053000808060007002200001007000201588009b
:10054000809e210090407800d0c3b30080cf50003f
:100550000d003a00c00f20005015880011158000d2
:1005600030fc2f00008060004001b30010158800af
:100570002115800000fc2f00008060003001b300d6
:10058000201588005e003700809e21009040780092
:10059000e0c3b30080cf50002b003a00111580005b
:1005a00030fc2f00008060000040a0001015880083
:1005b0002115800000fc2f00008060007001b30056
:1005c00020158800909e2100104078000080fb00dc
:1005d000e20f500012003200e20f500005003c0014
:1005e0000000e00008003200e10f50000900320076
:1005f00043003700e30f50000c003200e40f5000be
:100600000e0032003e003700c01121005015880056
:100610003b003700c0212200501588003800370009
:10062000c04124005015880035003700c0812800e3
:10063000501588000000000031003700f001200054
:10064000501588002e003700809e21001040780051
:10065000e24f50002a003a001115800030fc2f00b4
:10066000008060000040a000101588002115800067
:1006700000fc2f00008060007001b300201588008e
:10068000909e2100104078000080fb00e20f500097
:1006900012003200e20f500005003c000000e000b4
:1006a00008003200e10f500009003200140037004a
:1006b000e30f50000c003200e40f50000d00320038
:1006c0000f003700c0112100501588000c003700c2
:1006d000c02122005015880009003700c0412400c5
:1006e0005015880006003700c0812800501588008a
:1006f00003003700f00120005015880000000000c2
:10070000a1e2a80000282000000f7800809e2100b0
:1007100090407800f0c3b30080cf500004003a004e
:10072000909e210010407800e44f50002e003200cf
:10073000809e210010407800e34f500004003a00f2
:10074000909e210010407800e44f500026003200b7
:1007500090cd80009e00780091007800000140005c
:10076000e062210000004100010878001e8fe800cf
:1007700090cd80009e007800910078004006b00087
:1007800000014000e0622100000041000108780003
:100790001e8fe80090cd80009e00780091007800c8
:1007a000800cb00000014000e06221000000410028
:1007b000010878001e8fe80090cd80000000e8005e
:1007c00090cd880091cd800030062000808f5000b1
:1007d000050036000000eb0090cd8800f09d210060
:1007e00011c0b30001487800809e2100904078003d
:1007f000e0c3b30080cf500023003a00a0cd8000ba
:100800000000e800a0cd8800a1cd800010032000ea
:10081000808f5000020036000000eb00a0cd880061
:10082000a0cd80009e00780091007800000140007b
:100830006088210000004100010878001e8fe80058
:10084000a0cd80009e007800910078002003b000c9
:10085000000140006088210000004100010878008c
:100860001e8fe800a0cd80009e00780091007800e7
:100870004006b000000140006088210000004100f7
:1008800001087800eb003700809e2100904078003e
:10089000f0c3b30080cf500066003a00909e210064
:1008a000104078000080fb00e20f50001e00320074
:1008b000e20f500005003c000000e000080032009c
:1008c000e10f50000f003200da003700e30f500054
:1008d0001e003200e40f500026003200d500370021
:1008e0001e00780010007800b0cd88001e8fe80050
:1008f0001e00780010007800f0cd8800e2e2a80029
:10090000cc0037001e00780010007800c0cd8800b1
:100910001e8fe8001e0078001000780000ce8800ce
:10092000e302a800c30037001e0078001000780022
:10093000d0cd88001e8fe8001e00780010007800df
:1009400010ce8800e802a800ba0037001e00780028
:1009500010007800e0cd88001e8fe8001e007800af
:100960001000780020ce8800e822a80000000000d7
:10097000b00037001e0078001000780040ce8800dc
:100980001e8fe8001e0078001000780030ce88002e
:100990001e8fe80090cd80009e00780091007800c6
:1009a00000014000e06221000000410001087800e1
:1009b0001e8fe80090cd80009e00780091007800a6
:1009c0004006b00000014000e0622100000041004c
:1009d000010878001e8fe80090cd80009e0078000e
:1009e00091007800800cb00000014000e06221001e
:1009f000000041000108780090cd80000000e80070
:100a000090cd880091cd800030062000808f50006e
:100a1000050036000000eb0090cd8800f09d21001d
:100a200011c0b30001487800d042a800d022a8002d
:100a300080003700809e210010407800e34f500076
:100a40007c003a00909e2100104078000080fb005e
:100a5000e20f500024003200e20f500005003c007d
:100a60000000e00008003200e10f500012003200e8
:100a700070003700e30f500027003200e40f5000f1
:100a8000380032006b0037001e007800100078003c
:100a900050ce88001e8fe8001e00780010007800fd
:100aa00090ce8800e2e2a900909e210011c0b30020
:100ab000014878005f0037001e00780010007800c1
:100ac00060ce88001e8fe8001e00780010007800bd
:100ad000a0ce8800e302a900909e210021c0b300af
:100ae00001487800530037001e007800100078009d
:100af00070ce88001e8fe8001e007800100078007d
:100b0000b0ce8800e802a900909e210031c0b30059
:100b100001487800470037001e0078001000780078
:100b200080ce88001e8fe8001e007800100078003c
:100b3000c0ce8800e822a90010cf8000ea0f500044
:100b400004003a00909e210041c0b30001487800a3
:100b500038003700909e21008040eb00014878006b
:100b6000340037001e00780010007800e0ce8800c6
:100b70001e8fe8001e00780010007800d0ce88009c
:100b80001e8fe800d042a900d022a900909e21002b
:100b90008040eb000148780090cd80009e007800f6
:100ba0009100780000014000e06221000000410057
:100bb000010878001e8fe80090cd80009e0078002c
:100bc000910078004006b00000014000e062210082
:100bd00000004100010878001e8fe80090cd8000e1
:100be0009e00780091007800800cb0000001400069
:100bf000e0622100000041000108780090cd8000f3
:100c00000000e80090cd880091cd800030062000e3
:100c1000808f5000060036000000eb0090cd880069
:100c2000f09d210011c0b300014878000100370099
:100c300000000000809e2100904078008181fb0030
:100c400010c0b300f2032000828f510001003c006d
:100c50000040eb000141e800819e210082487800bd
:100c60000004e00003003200809e21008040eb0081
:100c700001487800e09d210011c0b30001487800d0
:100c80000080fa003400f9004f01be004f00be00a2
:100c900000400600809fbe003400f80000002000e5
:100ca000a00188000000fa0085c0a900600c2200a5
:100cb0008040eb00014878000080fa003400f90021
:100cc0004f00be00004006003600f800809fbe00c6
:100cd000829fbe00849fbe00869fbe003400f80045
:100ce00000002000a00188000000fa008c00a9008c
:100cf00051012000401e2000205802000100000089
:100d0000100e22008040eb0001487800100e2200f7
:100d100090407800000e220001487800000e22006a
:100d200090407800200e2200014878000080fa00f0
:100d30003400f9004f03be004f02be004f01be0059
:100d40004f00be003600f900004006003600f800f3
:100d5000809fbe00829fbe00849fbe00869fbe0013
:100d60003400f80000002000a00188000200fa0012
:100d700021088100010f780084c0a9001e003700ff
:100d80001e00780040409000e14f500017003a00ec
:100d90001e007800100078000000e0001300320010
:100da0001e007800100090008000e8001e0078000f
:100db000110098001e00780010009000800078005c
:100dc0001e007800100078000000e900808f5000bd
:100dd000060036001e007800300090000000010080
:100de0001e0078008000eb00110098001e007800c3
:100df000c0009000010f78001e0078000000e000a5
:100e0000dfff3a000080fa003400f9004f03be0013
:100e10004f02be004f01be004f00be003600f90079
:100e2000004006003400f800881f78000800200009
:100e3000a80188004f0478000000fa0086c0a900cd
:100e40001fe1a80021e1a9000080fa003400f900a8
:100e5000004006000040da000000fe000c02e20044
:100e600004003d000f42ab00020032000f02ab0055
:100e7000feff32000040da00feff3700889fbe0010
:100e800080047800500881000000e00004003a006f
:100e90000e0007000084eb000000e00008003500b1
:100ea000580881000900e0000500320009004400f4
:100eb000060007000000e00001003d000084eb0098
:100ec000080078004f04be00000006008000780093
:100ed0000100e00003003a00c01022005008890021
:100ee000000005000080eb00c2182200828f500035
:100ef00002003e00510889000000eb0000000600df
:100f00000000050003f0a200889fbe008a9fbe007b
:100f10008c1f7800b6010700bd0133006450e1006a
:100f20004f0032006420e1005200320003826c0066
:100f300007003b000905d0000306d000820f5400d3
:100f40000c065d00020039000200320089017800c1
:100f5000030678008582550004003d000003fd0073
:100f60008103fd008502ea008b854200840f720038
:100f700002003b0060001000e08018006011b80023
:100f80000005eb007a28e1000a003900060078002d
:100f9000c75ddd00f707b200878075002d003700c0
:100fa000828171000a017800610560008180d100b2
:100fb0000080d3008502e900f9ff3b0006044000f1
:100fc0008784480002003b0060041400e0841c0099
:100fd0000988a300070032008a81710082817100b4
:100fe000610164008904d1000884d3008b05e80006
:100ff000170037000978a30013003a000b00e00047
:10100000130034008b05e9000804440089844c0077
:101010000a4474000978a3000d003a000b00e000b8
:10102000070034008b05e9000804440089844c0063
:1010300001003a000b0020000978a300f7ff3200fe
:101040000001eb0002003700828171000a01780084
:101050002c0107000cf0a70001f0a000750137007b
:101060006420e10002003a00838f6c0075013300b8
:101070000801be000200be006e013700889fbe005e
:101080008a9fbe008c1f78005901070010022000c3
:1010900002003b00104588005d0137008a006200b5
:1010a0006408e10002003a0010458800650137003d
:1010b0006108e100fcff32000800be000304780074
:1010c0007000070001f0a1000900070008f0a60069
:1010d000040037000001be0091042400b0fd200090
:1010e00088ff070009f0a70001f0a20051013700b6
:1010f000889fbe008a9fbe008c9fbe000004be0079
:10110000260107000800be00890678006420e1007f
:1011100008003900040032000160a0001202200023
:10112000124588005300370091fc2300b0fd2000d9
:101130004e0037000006eb0009f0a10003f8230081
:10114000020020000800be009f00070006003400d7
:1011500001f82300000020000801be00490007003c
:101160000004be002c0020000800be0093e823000d
:10117000320a230094000700120034000801be0068
:10118000d1fd2300703d2b005fff07000005be006e
:10119000b3f32300f27a26000800be002c010700fa
:1011a00003f823000200200056ff07000801be00dc
:1011b00055ff07000a01be00320007000004be0010
:1011c0000c06e8000800be0001f0a10002002000ab
:1011d000039823007c0007000800be0016003500bd
:1011e0000801be001a0107000005be0032cd2c0028
:1011f00043fb230044ff0700809fbe0012692800c4
:1012000003d52b000a00be0011010700620f210068
:1012100013ef2b003cff07000a01be000c01070082
:101220004f01be00170007000801be0008010700bb
:101230000801be0034ff07000c00e0000b00320084
:101240000c10a70001f0a200b2fd200093fc2300c7
:101250006260e1000400320022a9200063f0230054
:101260000c10a70063f8230027ff07000df0a7006c
:1012700001f0a2004f06be004f05be004f04be00a5
:1012800000000600889fbe008a9fbe008c1f780069
:10129000d7000700de00330003866c006450e100d5
:1012a0002e0032006420e100330032006150e10082
:1012b0002f0032006120e1003100320085855500a9
:1012c000eb07b000090020000804200005003700eb
:1012d0000804440089844c000a00310006034300de
:1012e00087834b000001530081815b00f8ff3300ce
:1012f0000203be000800a0000804440089844c00da
:10130000f6ff3900c639dd008301730001003200a9
:10131000130020008904d1000884d3000998a30099
:10132000050032000800a7000300a0008904d100d6
:101330000884d3008b05e8008904d1000884d30019
:101340000001eb000281d2006e00070001f0a10055
:101350000cf0a70001f0a000b60037006420e10007
:10136000b80032000801be000200be00f7ff3700df
:101370006120e100b30032006000b800f3ff3700e5
:101380000000200001f82700f0ff3700839f68006d
:101390000100e00002003d0060001000e080180045
:1013a0000300e00002003d0060011100e08119002f
:1013b000100107004f00e00002003b006000100039
:1013c000e0801800000006001400200040013700f3
:1013d000f4ff2f003e0137000001be006f00070040
:1013e0000470a70003f0a1006509b10016003200e7
:1013f0000d0035006828e10006003500f0ff2f00e1
:10140000f1ff27000300e00013003b00010028006b
:101410000000050000004000818048008502e900ce
:10142000fcff3a0008003700f88f420002003c0041
:101430008000eb00000005008100d1000080d30097
:101440008502e800fcff3a000300e00002003b00d8
:1014500060001000e0801800000006000001be00df
:101460004e0007000470a70003f0a10003f8a300da
:1014700013003a006509b100100032000900350080
:101480006928e10002003500010028000000050085
:1014900000004000818048008502e900fcff3a001e
:1014a00000000600f88f4200050035008100d100e1
:1014b0000080d3008502e800fcff3a00000006002f
:1014c0008000eb00000005004f89de0082017800fb
:1014d0001a0137006011b800280137000001eb0045
:1014e000d4000700040032000200200003f82300ab
:1014f00001f0a70083fe07000000060004002000a2
:10150000f300370081002000618055000b003d0092
:101510000b00200061fe2f000100e1001d003400df
:1015200082817100610164008904d1000884d300c4
:101530000000e800faff3a0071002000610064003a
:1015400003007000020060000900320061044400e2
:10155000e0844c000988a500050032008b05e800f6
:101560006808e10002003a008904d1000884d30031
:10157000f20f20000258e10005003d00c75ddd00cc
:10158000f907b200898075000800780000000600a5
:101590000bf827008b00780000000500c70ade006a
:1015a000f107b200f50fb20008003200e1cf4200af
:1015b000020032000170a00024000500810f7000bd
:1015c000010032000408050044000500810f70008e
:1015d00002003a00140005008502e9000000400006
:1015e00081c04800fcff3b000170a0002400050002
:1015f0000004be00e9ff07000003be000405be00b2
:101600000200be00e5ff0700844f750000000600e1
:101610000200be006450e100050036006420e100d5
:10162000020036000968a30001003a000800be006d
:101630000160a0004f0678004f05be004f04be00b9
:1016400000000600f0ff2f00f1ff2700f9ff370030
:10165000889fbe008a9fbe008c1f7800e4ff0700b1
:10166000ebff330003866c006450e100240032007d
:101670006420e100270032006150e10022003200c6
:101680006120e100210032008b854200eb07b100b0
:101690000134b800003ab8000804420089844a00c6
:1016a000013ab8000030b8008880400009014a00c3
:1016b000040033000000400081804800020149001e
:1016c0008b05e900c909dd008301700001003200cb
:1016d00013002000c814de004814dd004709de00b6
:1016e0001200b200c808de000884700085ff070001
:1016f00001f0a1000cf0a70001f0a000cdff370021
:101700006120e100cfff32000801be000200be00f0
:10171000f7ff37006150e100fcff3a00c9ff3700d6
:10172000889fbe008a9fbe008c1f78000004be0008
:101730009aff07000478a30026003a006120e10028
:101740002500320009f8a30025003a006420e100da
:1017500021003200f507b1000508a30002003200a5
:1017600000004000818048006044b8000310200061
:10177000020020000000400081804800080544006d
:1017800089854c000a0541008b8549000a055000f7
:101790008b855800030033000a00be000204740069
:1017a000838474008301d1000281d300830f710010
:1017b000f0ff3a008904d1000884d3006001490099
:1017c00082017800c1adde00fb07b0004dff0700cd
:1017d00098ff37000960a0000800be0095ff3700a1
:1017e0001202200012458800f0ff2f00f1ff2700b1
:1017f00090ff37006022b800060220000000d000f1
:101800008180d2000482d2008582d2000000a00034
:101810000202520083825a00030031000202420099
:1018200083824a000000a1000603e900f3ff3a00aa
:1018300000000600889fbe008a9fbe000003be0015
:1018400056ff0700850578008281520002002000c3
:101850006220e10004003a00f307b1000400350003
:101860007718e100040035000600be0014003700c0
:101870006000b8000f003700f50f2000faff2f00be
:101880008502d1000a85d3008301e900fcff3b00fb
:101890008184620000046500890f7400f2ff320049
:1018a0008582ea000a85ea008184620000046500fe
:1018b00014ff070007f0a70001f0a0000081eb0073
:1018c0000200e0004f05be004f04be00000006000d
:1018d000889fbe008a9fbe00841f780044ff0700d7
:1018e0004f00780011003300f0ff2f00838f6c0051
:1018f00006003b00040565000a00a7000800370049
:1019000009f0a6001000200008003700820f5400e4
:10191000838f5c00030039001000200001003e00ae
:101920000000200009f0a7000000ea004f05be00fb
:101930004f04be000000e00000000600881f780091
:10194000030478000300e00007003d006000100081
:10195000e080180060011900e081190002003b00de
:1019600001f02d00030037000400070008f0a70075
:1019700001f0a0004f04780000000600889fbe0020
:101980008a9fbe0000827000040271000482710010
:10199000260032000004be000200be006011b80044
:1019a0006b092000950220000182cf000a00390057
:1019b0000541b1000082cf00070039000541b100a8
:1019c0000982cf00040039000541b1000882cf0030
:1019d000010039000541b1000542520012003200f9
:1019e0000a003b0082817100610164008100d10026
:1019f0000080d3008984d3000884d3008b05e800dd
:101a00000442e800f7ff3a000700370008044400ea
:101a100089844c0000004800818048008b05e90063
:101a20000442e900f9ff3a00b6fe07004f05be0088
:101a30004f04be0000000600800078001106b100cf
:101a4000030035009101b10001003c000050a100ed
:101a50000000060000047800060037000180400006
:101a600062078100620078008100e8007107890048
:101a7000000001007107810080078100808f500005
:101a8000f6ff390080f02100600789002002200065
:101a90008007890008007800f0fc07000000e000e3
:101aa0002f003200c0017800e38f51002c00360077
:101ab0000308a3002a003a00c10781000100e000ea
:101ac00002003200810f5000040031001100980024
:101ad000c0078900160037008200780011019000cd
:101ae0000200e00002003200800f5100faff3900ce
:101af0001102780084824000850f500018003900e0
:101b0000808f520003003a008308420001007800f1
:101b1000070037000200e0000300320083014000ac
:101b2000830f51000e0039001200980090009800b9
:101b3000900090000100e000090032001001400018
:101b4000828f500006003a00620f22000009eb006d
:101b500010017800110841009100900011009800d8
:101b600000000600889fbe0000047800b1078100d5
:101b70000100e00002003200010078000d00370093
:101b8000c1078100800f220004003700910f54002c
:101b9000250036000180e800910090000100e0007f
:101ba000faff3a0010003700920f54001e00360072
:101bb0000280e800100178000200e000faff3a001d
:101bc00011017800c1078100800f22000400370056
:101bd000910f5400140036000180e800910090003d
:101be000828f5000faff3a0039088100888f540034
:101bf0000100310088047800090078004a000700dd
:101c00000000e00004003a00888f54000500320014
:101c10008904d100f5ff3700091878009fff0700fd
:101c2000d2ff37000000eb004f04be0000000600aa
:101c3000881f7800630440000800a1008000eb00ca
:101c4000800f540021003600e30f540001003e00d5
:101c50004800200008007800c2ff07008000eb0069
:101c60000000e00019003200900078009101780037
:101c700064815100880f5100030031001101900070
:101c80000208780007003700088140000208780049
:101c900091019000130198001001780011091400bf
:101ca00088087800100178000000eb000200e000d6
:101cb00004003200920190000300e00001003200b5
:101cc0000280e800b00789008180e8000100780008
:101cd0004f04780000000600800178000200370001
:101ce000b15978000201e9000200e000fcff3a006f
:101cf000000006008001780002003700815978005a
:101d00000201e9000200e000fcff3a0000000600ca
:101d100080007800010178003104e000fdff3a0006
:101d20000000510000000600800078000000eb0079
:101d30000100e00005003400010078004ffc0700be
:101d4000e10f400001003a000000eb000000060037
:101d5000ee874700889fbe008a9fbe008c9fbe0012
:101d60008e1f7800f0b79f0001067800820578008a
:101d700000047800080578000a047800b846780066
:101d80000d00fb008c0007000000e000f9ff3a00a6
:101d9000d0c2b30080cf56000300320000c0e9007b
:101da00080cf560002003a000a05e8000100370023
:101db000804678000b00e00005003500e18f5500fb
:101dc0000300320040022000808f550006003400de
:101dd0006044b8000c00e000700032007fb0970053
:101de000000e78006d0037000b00e0000e0032009e
:101df000f08f55001a003a0000c3b3009a4f10004c
:101e000017003a001a40900081c7b300814f50007c
:101e10000300320081c5b300814f500010003a002a
:101e20000a85e8000e003700ab00200000c3b300b5
:101e30009a4f10000a003a001a40900081c7b30080
:101e4000814f5000040032008b00200081c5b30098
:101e5000814f500002003a000a85e8000b01200083
:101e60000a007800000278000400780001c3b30083
:101e7000b0cf1000fbff3200040778006044b800c8
:101e8000b4b79f000d003700e1e22100814050000f
:101e9000c1ef9f006159b9000800be00650f07003f
:101ea0004fea97000401fb00cf91de00c8b79f0006
:101eb000d9b79f0002044000838448008e02780056
:101ec0003e00fb0085bf9f00430007000b01780028
:101ed00080007800e0e22100340707008fba970005
:101ee0000000e000e8ff3a003fb29700850f550080
:101ef00005003a006044b8000c00e0002700320002
:101f0000ffb29700240037000482520030e5210020
:101f100060c07d000000fb0000025200170033008b
:101f200011003a004fe997000200fb00cf80de006d
:101f30000000540081805c00800f5400818f5c00a1
:101f4000090039006159b90085bf9f0029fe0700cb
:101f50008fba97004fb19700dfb19700820f500002
:101f6000838f5800050032002002200010458800b1
:101f70000084eb008084eb0005003700d0c2b30082
:101f800080cf560002003a0060041400e0841c0078
:101f90000c00e00001003200050e78000800be00d1
:101fa0004f0778004f06be004f05be004f04be002d
:101fb000ef00b100000006006900e10004003500f8
:101fc0006d00e100030034000002b10001003200a6
:101fd0000000050010000500800078001104b10029
:101fe000030035009101b10001003c000050a00049
:101ff000000006001200fa00889fbe008a9fbe0003
:102000008c1f780002047800a0b79f00b1b79f0032
:1020100083007800788057000f0907000000eb006c
:10202000e0b79f00d8b79f000004eb005fb69700b1
:102030009c85fb008b04fb008b05ea00cf5dde0076
:1020400009007800dcff07000000e0001b00320000
:102050006fb097000000e800e0b79f00120020007a
:102060008000eb003fb09700afb197000300010084
:10207000000578000a007800cfff07000000e000ac
:10208000f3ff3a006fb09700e10f450008003200ff
:102090000000e900e0b79f000001eb008a00780033
:1020a0003fb09700afb19700030001002200370056
:1020b0000000e900e0b79f001f0037005002200039
:1020c000808f540002003a000b05e9001800370029
:1020d0000b057800160037006fb097000000e8008d
:1020e000e0b79f00120020008000eb003fb0970097
:1020f000afb1970003000100bc00fb00810f50004e
:102100000b003200e10f40007c003200efb097007e
:102110008100e900e1b79f000001eb00800078003a
:102120003fb09700afb19700030001007300370084
:102130000a05e900e8ff3b005fb097008b0540000f
:10214000dbb79f0050022000808f54000300320054
:102150000900e000b5ff3a00680037009b407800b6
:102160000040eb00a2c2b30082cf500003003a004f
:102170008b05e800dbb79f0001407800a0f79f00c7
:102180000000eb0080bf9f000b0037000fb89700e6
:10219000f2ff2700820f5000050032006a01b900eb
:1021a00000fd2f00020040000100400080bf9f00a2
:1021b0000a05e800dab79f005fb597009a447800f7
:1021c0008900fb0000fd2f0001004000e90f5000d6
:1021d000eeff3600200a22007e0607000000e00025
:1021e000030032000a05e800dab79f00010037005b
:1021f0008044eb00b9f79f005fb0970081c6b30041
:1022000081cf540004003a0090cf14000b003a0034
:10221000e6c0500006003700c1c6b30081cf5400ad
:1022200006003a0090cf140004003a00e5c04000d8
:10223000b1f79f000000e800d0b79f005fb09700a3
:102240009000fb00900a2200620607000000e000f8
:102250001a003a006fb097000000e800e0b79f0056
:10226000120020008000eb003fb09700afb1970054
:102270000300010080047800090078004eff070089
:102280000000e000f3ff3a006fb09700e18f4400d8
:10229000080032000000e900e0b79f000001eb00f9
:1022a000890078003fb09700afb1970003000100ac
:1022b000020037000000e900e0b79f007c80570073
:1022c000b30807000000e00003003c000800e00045
:1022d0000a003a00080037004ff097000004e000c1
:1022e000010032000804e8005fb097000000e80039
:1022f000d0b79f004dff3700000478000800780039
:102300004f0678004f05be004f04be000080fa0063
:1023100000000600881f7800020478000801780099
:102320006dfe0700080040004f0478000000060022
:102330000000fa00881f780000047800ea81570046
:102340003fb9970088007800a01821000700070017
:102350000000e000020035008040eb0001747800ce
:102360004f0478000080fa00000006006200fa00c6
:10237000889fbe008a1f78000005780081047800dd
:10238000020478008300780080f92f000f004000dd
:10239000310807009a979f00a9979f000000eb0063
:1023a000b09f9f001885fb008a04fb000a05ea0025
:1023b0004f55de0050022000808f54000d00320087
:1023c000e10f55000b003a000a0178008800780000
:1023d0002f9097009f91970003000100a0979f0006
:1023e0000000e0008e0032003f9897000000e800f7
:1023f000b09f9f000a04440050022000808f5400c8
:10240000040032000900e000e6ff3a003f98970020
:10241000840037000000eb00909f9f00809f9f008a
:10242000f0979f00e0979f00d0979f00c0979f0074
:1024300007003700c10522000100500000004000e5
:102440000105220061007800df989700010070000c
:10245000d09f9f00880478000904780038457800f0
:102460008a00fb00c0052200da0507000000e0003a
:10247000f0ff3a00a1c2b300814f55000e003a00b0
:10248000cf8897000180e900c08f9f00100078007e
:10249000c09f9f000000e00005003d000000ea0032
:1024a000c09f9f005f9897000020a000d09f9f00d2
:1024b0000904e8000f003700c09f9f000000eb00f8
:1024c00005003700f2ff2700820f500002003200a3
:1024d0006a01b9000280400009047800880478008d
:1024e000b900fb000103b100e98f5000f5ff360091
:1024f000c09f9f00e0c2b300984f1000020032005e
:102500000080eb0019003700a0c2b300d84f1000c4
:1025100007003a00cf8897000180e900c08f9f0034
:1025200010007800a09f9f000804e800100037000a
:102530000000eb00a09f9f00880078000500370096
:10254000f3ff2700830f5000020032006a02b90037
:102550000400410001047800880078003101fb008c
:102560000203b100e90f5100f5ff3600a09f9f0064
:10257000984478008900fb0080042200950507003c
:102580000000e000020032000804e800010037000b
:102590008044eb00c97f9f0080c6b30080cf540009
:1025a00004003a0098cf14000a003a006640500038
:1025b00006003700c0c6b30080cf540005003a00c3
:1025c00098cf140003003a0065404000c07f9f0090
:1025d0000804e8001801fb00e3fb2f008f81410095
:1025e00081f92f008f804000a0f92f000f004000dc
:1025f000100007000000e00009003a00e1fb2f0096
:102600008f804000a0f92f000f004000d606070081
:102610000000e000020035000804e80061ff370018
:102620000080eb004f0578004f04be000080fa00e8
:1026300000000600889fbe008a1f78000004780012
:10264000824478000305780070c6b30080cf540040
:1026500021003c0000c0e90080cf5400d5003d00bf
:102660007240500080cf54003c0132000d003c000d
:102670006c40500080cf54004f013c0000c0e90086
:1026800080cf5400cb003d0050c2b30080cf540037
:10269000460132007c40400080cf540046013a00a1
:1026a000c400370010c6b30080cf5400c100320010
:1026b00004003c006940500080cf54003e013a00c5
:1026c0006900370030c6b30080cf540018003200d4
:1026d0000040e8000900370000c7b30080cf540075
:1026e0001001320008003c0000c0e90080cf540017
:1026f000d90032005c003c006540500080cf54009f
:102700002d013a000f00370050c7b30080cf5400ae
:10271000550032006340400080cf54005200320028
:102720006540500080cf540023013a000b01370070
:102730001181e90082087800780090001275780015
:102740002301370028609000c2c6b300824f5000ba
:1027500007003a00110178006400510080087800f9
:102760001000be004f89de0082017800140037009f
:1027700012c7b300824f500003003a0011027800e4
:102780006800520005003700a2c6b300824f500017
:1027900006003a00910278006880520080087800b4
:1027a0005001be004000be00050037001180e90066
:1027b0008008780010007800cf80de006109b90041
:1027c000009cbe000294be002862900085c6b30043
:1027d000854f52000d00320025c6b300854f5200d0
:1027e00004003a000000fb00cf80de006109b90060
:1027f0000800370045c7b300854f52000300320080
:10280000e6c24200854f520004003a00cf80de004d
:102810006109b900009cbe000294be003802be00ef
:102820002803be0078009000d1c2b300e00f520030
:10283000e08f5a00e00f5b00e08f5b00080035007e
:10284000881090000118a30002003200b1c2b3004a
:10285000030037000108a3005100320001c2b30099
:10286000017578004c00370028609000c2c6b300a4
:10287000824f500008003a001103780064005300b2
:10288000800878001002be006033b8000400be006b
:102890000601be001400370012c7b300824f50007b
:1028a00003003a009102780068805200050037006a
:1028b000a2c6b300824f500006003a001103780010
:1028c00068005300800878005001be004000be0040
:1028d000050037001180e9008008780010007800ba
:1028e0008000eb006011b800009cbe000294be00a6
:1028f0002862900085c6b300854f52000d0032005b
:1029000025c6b300854f520004003a000080fb004a
:102910008000eb006011b8000800370045c7b30025
:10292000854f520003003200e6c24200854f52003c
:1029300004003a008000eb006011b800009cbe006b
:102940000294be00081090000038a300140032006a
:102950003800be002801be00e00f5000e08f580094
:10296000e00f5900e08f59000d00320080c7b3001e
:1029700080cf54000300320080c5b30080cf5400e4
:1029800007003a007800900001c3b3000175780099
:102990000000e800097578000000e8007004980065
:1029a00078009000000545006a049800894078008e
:1029b0006700370028619000c0c4b300804f510009
:1029c00006003a0091037800688053008008780080
:1029d0005001be004000be00050037001101780024
:1029e00064005100800878001000be00c70b07008b
:1029f000009cbe000294be00b800900078009000d9
:102a00000100e00002003d00d1c2b3000800370021
:102a1000881090000118a30002003200b1c2b30078
:102a2000030037000108a3000400320001c2b30014
:102a3000017578000000e8007004980078009000ac
:102a4000000545006a0498008900fb000800780032
:102a5000650007006000370028619000c3c6b3001e
:102a60001180e900834f5100220032000a003c002f
:102a7000e4c15100834f51002500320083c1e800ba
:102a8000834f510013003200e8c15100834f5100c1
:102a90001e003a000a00370043c7b300834f5100bd
:102aa0001b003200e6c14100834f51001800320084
:102ab000e9c15100834f510014003a00050037006e
:102ac0008008780010007800485c90000848780082
:102ad000410037008008780010007800680a9000f4
:102ae000cfa2de00612bb9000498be000690be00a4
:102af00039003700800878001000780068099000dd
:102b0000cf91de000288be00330037001180e9005b
:102b10008008780010007800680c900008087800a1
:102b20002d0037001180e90080087800100078003f
:102b3000cf80de006109b900009cbe000294be0097
:102b400078009000000545006a04980081c7b30032
:102b500008007800550407001f0037001180e900c5
:102b600080087800100578006a049800d80c90005e
:102b70000900e00004003d000a00780064fc070042
:102b80008004780007003700090178008000eb001e
:102b90000a007800050407000000e0000100320090
:102ba0008a045000190c98000b0037007800900040
:102bb0000975780006003700780090000005450090
:102bc0000904e00001003a0059c2b300094d780041
:102bd0000000e800700498000000eb004f0578004a
:102be0004f04be00000006002f04b000889fbe0006
:102bf0008a9fbe008c9fbe008e1f78000007780061
:102c000081f79f003e04be002e05be005e089000c6
:102c10000000e00002003d0060002000500f98001e
:102c20008e00780020fb2f000f004000f503070006
:102c3000e20f50000a003a0030002000100f980008
:102c4000b1c9b3000ff0970081404000a0dd210022
:102c5000e1cf50000d003e0060dd21000b00370089
:102c60000000e0000f00340030002000100f98003a
:102c7000b1c9b3000ff197008140410020de21006f
:102c8000e1cf500001003e00e0dd2100ee009000a9
:102c9000b0487800b0687800104078009040980004
:102ca000f30037000000e00005003a0022fb2f008f
:102cb0000f014100001978008001eb00e7003700a8
:102cc0006022b8006033b8000800be000a01be00f0
:102cd000650a07000000e00001003d000bf0a200c3
:102ce000705927009f9897000088b900026a280051
:102cf00013002000a5f90700640650009c9f9f0068
:102d000013003b0063061600c0ff2f00000666009c
:102d10008c01ea00939f9f006dde21000800be0039
:102d20000a01be00070037000c08a30003003200b0
:102d30003d02be002d03be00430b07000c86d100f0
:102d4000e88646000c00e000f7ff3c001800370062
:102d50000c00e00018003200c0ff2f0000066600e3
:102d60009c9f9f006dde21006000b80002002000e3
:102d700003ff2300070037000c08a3000300320004
:102d80003d02be002d03be002f0b07000c86d100b4
:102d9000e88646000c00e000f7ff3c000002be00a1
:102da0000203be000800be000a01be00380a070088
:102db0000004be000205be00de08900060c6b3003d
:102dc0000ff29700804f5200040032006000200094
:102dd00062c4b300824f520002003a009f9a9700eb
:102de0006a80420081004000f1b79f000103780033
:102df000f30f53000200340037012000f7b79f00a3
:102e000000c3b300c0779f0056fb2f000f034300a1
:102e10000e007800a0b79f00060778003d0037003d
:102e20000800be000a01be00d70a07000006be0067
:102e30007fb1970068015100f2b79f004240a9009e
:102e40000c003400fc0a07000002be000203be00b2
:102e50000800be000a01be00710b07006022b80026
:102e600046782d0077192400f70a07000004be00f9
:102e70000205be00e80047008e0020000802be00e8
:102e80000a03be00b4b79f00c5b79f00d6b79f0026
:102e9000e7b79f000c01be00010478000c0037006a
:102ea000a400200005002000c0fd2f000f004000fe
:102eb000290307006fa89700ffa897000fb197009c
:102ec0009fb1970005c3b300056441000001be0037
:102ed000e00f5100e08f5900030034000e07e900b5
:102ee000e10f4700eeff3a00880078003fb49700fa
:102ef000cfb497005fb59700efb597000200370099
:102f000000c3b300806078000e07e900fcff3b00bf
:102f1000688740007fb397000600e0000700340098
:102f20006022b8006033b8000800be000a01be008d
:102f3000d20907000000e000b9ff3c000e03780052
:102f40002fb7970051fb2f008f80400001035300e3
:102f50009f9b970067804300909f9f00020037006f
:102f60000603e9000000e900010178008200780012
:102f700003c3b300b1cf1100f9ff3200909f9f004f
:102f8000de09900061c6b3000ff29700814f520036
:102f90000300320061c4b300814f520002003a00c6
:102fa0000000e8000a0037001000200051c6b300fe
:102fb0008ff2970081cf5200050032000540780063
:102fc00050c4b2000080fb000000e9004f00de00aa
:102fd00083014000868f5100010034008601780093
:102fe0000300e0001d00350000c3b300868f5100d0
:102ff00006003d0062c279006940400041c3b30051
:10300000814f520001003c00694050008300e900fc
:103010008100410001003700840178000302e900cb
:1030200001037800a142780080cf5200faff3200fd
:1030300091c3b300814f500001003a00054be800f6
:103040000400e00005003d000201e9008301e80002
:103050001f9b97000603e800969f9f008ff3970041
:103060008700fb001f9a97000e00780006000700fb
:103070004f0778004f06be004f05be004f04be004c
:103080002f04b10000000600f0874700889fbe00b3
:103090008a9fbe008c9fbe008e1f780000047800bf
:1030a000814478000205be00040678000b00e000b1
:1030b00002003c001b0020008a10220060c6b30002
:1030c00080cf54000e00320060c4b30080cf5400a3
:1030d0000b00320070c6b30080cf540003003200f2
:1030e00070c4b30080cf540081003a00e40f460062
:1030f0007f00350058089000800f56007c003d008e
:103100000c06e80060c6b30080cf54001000320007
:1031100060c4b30080cf54000d003200081090004e
:103120000038a30004003a0058089000808f550032
:1031300001003d005b0c9800580890000c00500006
:10314000500c980002003b000000eb00500c98006f
:1031500018089000e80090000c00e00026003c00f9
:1031600002c3b300827078000000e800100c9800e1
:10317000d80890000100e00003003c008810900097
:103180000138a30005003200e8009000e2c2b3005d
:10319000827078000000e800100c98005808900039
:1031a0008c00ea00810f500001003d000006ea009b
:1031b0008c00ea00210c9800000646005c0c980088
:1031c0008b0f5600010034000b0678003c0c980071
:1031d000e800900018089000008040000c01780082
:1031e0008a007800bcfa0700580890000c065000ce
:1031f0004c0c9800900037008c8f550018003d0053
:10320000008040000b0178008a007800b2fa0700c5
:103210001808900000804500100c98008b0556009f
:103220002b0c9800d80890000100e00003003c003f
:10323000881090000138a30006003200e8009000da
:10324000e2c2b30082707800380890000000e80005
:10325000300c980058089000400c98007600370019
:10326000008040000c0178008a0078009afa07007c
:103270001808900000004600100c98008c8555003e
:10328000d80890000100e00003003c008810900086
:103290000138a30005003200e8009000e2c2b3004c
:1032a000827078000000e800100c98005808900028
:1032b000808f55000100340080057800e800900000
:1032c00018089000008040008c0045000b01780039
:1032d00081fa0700180890000b004000100c9800bd
:1032e000580890008b0550002b0c980052003700b6
:1032f00018089000e80090009a7078000000e8003c
:10330000100c9800d80890000100e00003003c0079
:10331000881090000138a30005003200e8009000fa
:10332000e2c2b300827078000000e800100c980040
:10333000580890000000e000100034008b05e90000
:10334000808f55000100340080057800e80090006f
:1033500018089000008040008a00e8000b01780007
:103360005dfa0700180890000b004000100c980050
:10337000580890008b0550002b0c9800e800900036
:103380001808900000804000095878000007e80005
:103390000c00e00004003500b1c2b3000148780021
:1033a0008e04780004003700d1c2b30001487800d1
:1033b0008e0478000c06ea007d8557008006eb003d
:1033c00009003700a20020008c00780072805700ae
:1033d000d60107007fb097008fb89700016d780085
:1033e000000678008d06e8000c00e000f5ff3c00c8
:1033f0000d00e00009003a008e04780000c3b3001d
:10340000805c7800050037008d06e900fc805700dd
:1034100061c07e0002c3b300825c40000d00e0008a
:10342000f9ff3c00e8009000180890000080400080
:1034300080845400390c98000810900074006000db
:10344000f00f50000e003a009808900078009000ad
:1034500000804000a808900001004000b8089000db
:1034600001004000c808900001004000f8089000ea
:10347000810f500002003d0000805000000c9800b9
:103480004f0778004f06be004f05be004f04be0038
:103490000f01b10000000600900178000200e0007a
:1034a00002003a000308e900050037008080eb00c5
:1034b0001304e000020032000308e8009300fb0060
:1034c00001007800000006000200fa00f0bf9f0033
:1034d000ea8157003fb997008f80e900c0a421001e
:1034e000020007000080fa00000006001200fa0047
:1034f000889fbe008a9fbe008c1f7800020478005f
:10350000a0b79f00b1b79f00830078007880570074
:10351000d10307000000eb00e0b79f00d8b79f0081
:103520000004eb005fb697009c85fb008b04fb005a
:103530008b05ea00cf5dde00090078009efa0700e7
:103540000000e0001b0032006fb097000000e800b0
:10355000e0b79f00120020008000eb003fb0970012
:10356000afb1970003000100000578000a00780061
:1035700091fa07000000e000f3ff3a006fb09700f7
:10358000e10f4500080032000000e900e0b79f00ad
:103590000001eb008a0078003fb09700afb19700c0
:1035a00003000100220037000000e900e0b79f009f
:1035b0001f00370050022000808f540002003a00a4
:1035c0000b05e900180037000b05780016003700de
:1035d0006fb097000000e800e0b79f0012002000e5
:1035e0008000eb003fb09700afb1970003000100ef
:1035f000bc00fb00810f50000b003200e10f4000c7
:103600007c003200efb097008100e900e1b79f0035
:103610000001eb00800078003fb09700afb1970049
:1036200003000100730037000a05e900e8ff3b00d2
:103630005fb097008b054000dbb79f005002200071
:10364000808f5400030032000900e000b5ff3a000b
:10365000680037009b4078000040eb00a2c2b30036
:1036600082cf500003003a008b05e800dbb79f00d3
:1036700001407800a0f79f000000eb0080bf9f0092
:103680000b0037000fb89700f2ff2700820f5000a1
:10369000050032006a01b90000fd2f000200400061
:1036a0000100400080bf9f000a05e800dab79f00d4
:1036b0005fb597009a4478008900fb0000fd2f0059
:1036c00001004000e90f5000eeff3600e00a220042
:1036d000400107000000e000030032000a05e80096
:1036e000dab79f00010037008044eb00b9f79f0074
:1036f0005fb0970081c6b30081cf540004003a0048
:1037000090cf14000b003a00e6c0500006003700ce
:10371000c1c6b30081cf540006003a0090cf140018
:1037200004003a00e5c04000b1f79f000000e80047
:10373000d0b79f005fb097009000fb00500b2200b5
:10374000240107000000e0001a003a006fb0970063
:103750000000e800e0b79f00120020008000eb00ae
:103760003fb09700afb197000300010080047800dc
:103770000900780010fa07000000e000f3ff3a00ab
:103780006fb09700e18f4400080032000000e900ac
:10379000e0b79f000001eb00890078003fb0970080
:1037a000afb1970003000100020037000000e900fc
:1037b000e0b79f007c805700750307000000e00021
:1037c00003003c000800e0000a003a00080037004f
:1037d0004ff097000004e000010032000804e80008
:1037e0005fb097000000e800d0b79f004dff3700a2
:1037f00000047800080078004f0678004f05be00ee
:103800004f04be000080fa00000006001200fa001b
:10381000889fbe008a9fbe008c1f7800020478003b
:10382000a0b79f00b1b79f00830078007880570051
:10383000090307000000eb00e0b79f00d8b79f0026
:103840000004eb005fb697009c85fb008b04fb0037
:103850008b05ea00cf5dde0009007800d6f907008d
:103860000000e0001b0032006fb097000000e8008d
:10387000e0b79f00120020008000eb003fb09700ef
:10388000afb1970003000100000578000a0078003e
:10389000c9f907000000e000f3ff3a006fb097009d
:1038a000e10f4500080032000000e900e0b79f008a
:1038b0000001eb008a0078003fb09700afb197009d
:1038c00003000100220037000000e900e0b79f007c
:1038d0001f00370050022000808f540002003a0081
:1038e0000b05e900180037000b05780016003700bb
:1038f0006fb097000000e800e0b79f0012002000c2
:103900008000eb003fb09700afb1970003000100cb
:10391000bc00fb00810f50000b003200e10f4000a3
:103920007c003200efb097008100e900e1b79f0012
:103930000001eb00800078003fb09700afb1970026
:1039400003000100730037000a05e900e8ff3b00af
:103950005fb097008b054000dbb79f00500220004e
:10396000808f5400030032000900e000b5ff3a00e8
:10397000680037009b4078000040eb00a2c2b30013
:1039800082cf500003003a008b05e800dbb79f00b0
:1039900001407800a0f79f000000eb0080bf9f006f
:1039a0000b0037000fb89700f2ff2700820f50007e
:1039b000050032006a01b90000fd2f00020040003e
:1039c0000100400080bf9f000a05e800dab79f00b1
:1039d0005fb597009a4478008900fb0000fd2f0036
:1039e00001004000e90f5000eeff3600a00b22005e
:1039f000780007000000e000030032000a05e8003c
:103a0000dab79f00010037008044eb00b9f79f0050
:103a10005fb0970081c6b30081cf540004003a0024
:103a200090cf14000b003a00e6c0500006003700ab
:103a3000c1c6b30081cf540006003a0090cf1400f5
:103a400004003a00e5c04000b1f79f000000e80024
:103a5000d0b79f005fb097009000fb00100c2200d1
:103a60005c0007000000e0001a003a006fb0970009
:103a70000000e800e0b79f00120020008000eb008b
:103a80003fb09700afb197000300010080047800b9
:103a90000900780048f907000000e000f3ff3a0051
:103aa0006fb09700e18f4400080032000000e90089
:103ab000e0b79f000001eb00890078003fb097005d
:103ac000afb1970003000100020037000000e900d9
:103ad000e0b79f007c805700ad0207000000e000c7
:103ae00003003c000800e0000a003a00080037002c
:103af0004ff097000004e000010032000804e800e5
:103b00005fb097000000e800d0b79f004dff37007e
:103b100000047800080078004f0678004f05be00ca
:103b20004f04be000080fa0000000600800278000a
:103b300001037800110009000203d8008001780019
:103b4000830a78000299b90002015300920298009a
:103b50000500780000000600881f78008a9fbe00dc
:103b60008c9fbe00000478000205be000406be0063
:103b70000401be000a00be0004f60700008cbe006f
:103b80000c01be002b0807000005550081855d0073
:103b90002a0498003b049800080078004f06be00f5
:103ba0004f05be004f0478000000060003003700f8
:103bb000b0cf1000050032000201e900800178005a
:103bc0000200e000faff3a00000005000300780060
:103bd00000000600020037000304e0000600320087
:103be0000001780002007800b041780081cf5100d8
:103bf000f9ff3a00010037000001eb0002007800f5
:103c000000000600889fbe0000047800e6844000a3
:103c10001900d0004500de00f27f2000820f500026
:103c200010003a00000ceb00990478006f816400ea
:103c3000200020001b003a00210190000200e0005b
:103c400018003a00110190000200e00015003a004f
:103c5000100020001100e0001200320020002000bf
:103c6000100037000000e00004003a000100780076
:103c7000fb0107000000e00008003c00f200280003
:103c80001901610001fe2300810c710021c02f0089
:103c9000010c40000080eb0002003700000ceb003c
:103ca0000000eb004f04be0000000600fc87470048
:103cb000889fbe008a9fbe008c9fbe008e1f78002a
:103cc0000006780080c5b30080cf50000a003200a3
:103cd0007740400080cf50000a0032006940400029
:103ce00080cf50000b00320070ff210080bf9f008a
:103cf000ae0020000a00370062fe210082bf9f0054
:103d00000600370073ff210083bf9f008e00200054
:103d10000300370074ff210084bf9f000e012000c4
:103d20003c02be002c03be000605be000404be001b
:103d300040c6b30080cf5000030032006540400011
:103d400080cf50000b003a00e00f5200e08f5a0085
:103d5000e00f5b00e08f5b0006003d006000b800f4
:103d60006011b8000404500085845800060559000d
:103d700087855900e80f57000400320040002000fa
:103d8000f00f570038003a000100370030002000e3
:103d9000e00f5400e08f5c00e00f5d00e08f5d00fd
:103da00004003a00dc0890008d0120000100e000d2
:103db000060032008e00e900888060008fba97000c
:103dc000e5c07800f1ef9f007d01200080007800c1
:103dd0008100e900050033008b05d1000a85d3007e
:103de0008984d3000884d300f9ff3700089ebe0001
:103df0000a96be00120037008d06e9008e00e90029
:103e0000848060000fb99700e2c1780082fd2f0026
:103e10000f01410003f17e00800078008100e9007d
:103e2000050033008783d1000683d3008582d30049
:103e30000482d300f9ff3700049ebe000696be0040
:103e40003c02be002c03be00e00f5200e08f5a007f
:103e5000e00f5b00e08f5b008b0034000d00e000a2
:103e6000e5ff3c00880037002c60900081c6b3005d
:103e7000814f50000b00320006003c000004e000bf
:103e800008003200e6c05000814f50004e003a005a
:103e900004003700c1c6b300814f50004a003a0009
:103ea000210037000800e00004003a005c089000a0
:103eb0008d0120000000e000060032001100090022
:103ec0000e84d8000fb99700e2c07800f1ef9f0090
:103ed0007d012000110009000e84d8000a0037007f
:103ee000110009000e04d8008d06e9000e81b9000a
:103ef000020454008fb8970061417c0081fd2f00bf
:103f00008f80400082f07e00000478000800e0000e
:103f1000020032000d00e000f1ff3c00cfc4de00e3
:103f2000614db90025003700e00f5400e08f5c00c0
:103f300004003a005c0890008d0120000000e000c1
:103f4000070032006171b9000800be0036070700a3
:103f50008fb99700e3417800f3ef9f007d012000c7
:103f60006171b9000800be0022f607000b0037009f
:103f70006171b9000800be0004f507008d06e90074
:103f800000f1b900020454000fba9700e4427c002b
:103f900084fd2f000f02420005f27e000004be00e7
:103fa000e00f5000e08f5800020032000d00e000ea
:103fb000efff3c004fcdde008a057800089ebe0072
:103fc0000a96be0030003700e00f5400e08f5c001e
:103fd000e00f5d00e08f5d0004003a005c08900097
:103fe0008d0120000000e000090032006172b9007c
:103ff000612bb9000800be000a01be00b30707002c
:104000000fba970064427800f4ef9f007d01200012
:104010006172b900612bb9000800be000a01be0040
:10402000a30707000d0037006172b900612bb900ca
:104030000800be000a01be00a80707008d06e900bf
:1040400000f2b900040454008fba970065427c0066
:1040500085fd2f008f82420084f27e00009ebe000c
:104060000296be003c04be002c05be00e00f5400ca
:10407000e08f5c00e00f5d00e08f5d000200340027
:104080000d00e000e8ff3c00e80f570010003a0088
:104090000c1090000038a3000d003200f78f56007e
:1040a00006003e0085fd2f008f824200e5c07e00a5
:1040b00000c3b30080cf5000050032008d06e90038
:1040c00002c3b30081fd2f008f80400082f07e008c
:1040d00078811600120e98006c00900083fd2f006e
:1040e0008f8141008d804100fbf607001c08900085
:1040f000dc089000810f500006003d000080500059
:10410000000e98000c1090000040a10000169800ce
:104110000f0037000100e0000d003d008c10900002
:10412000f4806000f08f500009003a007c09900094
:10413000fc009000810051000c099000828050002a
:10414000008050004240a90001003400000e980099
:104150004f0778004f06be004f05be004f04be005b
:10416000cf01b100000006000400fa00889fbe00e5
:104170008a9fbe008c1f780000047800010678003a
:10418000f80d900078009000808555000808900098
:1041900080855500180890008085550028089000fb
:1041a00080855500380890008085550048089000ab
:1041b000808555000002220090bf9f00000323006d
:1041c000a0bf9f00081090000028a30015003a002f
:1041d0000b00e000130034000b0578008a0478001f
:1041e000e20f55000100360029002000c8019000b0
:1041f00009017800ee80570058009000030001008c
:10420000500498000000e0008c0032006808900024
:1042100009004000600c9800090555004240a900c3
:10422000eeff3c00780190000200e0000c0034003a
:10423000c80190008c007800580090000300010035
:10424000500498008080eb000000e0007c00320009
:10425000e80890007800900000804000600c980012
:10426000880c90000900e000110034000905780076
:10427000e28f5400010036002a002000c80190009f
:104280000a017800ec8057005800900003000100fc
:10429000500498000000e0006800320068089000b8
:1042a0000a004000600c98008a845400edff37003b
:1042b000180990000200e0000c003400c8019000d2
:1042c000e80090005800900003000100500498009e
:1042d0008080eb000000e00059003200e808900008
:1042e0001808900000804000600c9800a80c900016
:1042f0000900e0001100340009057800e28f540045
:10430000010036002a002000c80190000a01780050
:10431000ec80570058009000030001005004980002
:104320000000e00045003200680890000a004000ec
:10433000600c98008a845400edff37003809900023
:104340000200e0000e003400e80090001808900021
:1043500080804000c80190005800900003000100d8
:10436000500498008080eb000000e0003400320030
:10437000e80890003808900000804000600c980029
:10438000c80c90000900e000110034000905780015
:10439000e28f5400010036002a002000c80190007e
:1043a0000a017800ec8057005800900003000100db
:1043b000500498000000e0002000320068089000df
:1043c0000a004000600c98008a845400edff37001a
:1043d000081090008000eb000028a30018003200b5
:1043e0000b00e000160034008b047800090578000b
:1043f000e28f5400010036002a002000c80190001e
:104400000a017800ee805700580090000300010078
:10441000500498000000e000080032006808900096
:104420000a004000600c98008a8454004240a900b1
:10443000eeff3c008000eb00010037008080eb00c5
:10444000010078004f0678004f05be004f04be0003
:104450000080fa0000000600010878000000060055
:10446000e600400011017800050028008502610087
:104470006f01610082087800020032001200200003
:1044800011003700a0019000120020000300e0009e
:104490000d003a00900190000300e0000a003a008d
:1044a0001000e00008003a003600370064034000c6
:1044b0009608780080017800530b78009009780006
:1044c0000408780070015100110278000400e00037
:1044d000f6ff320013003700640240001403780036
:1044e0004f33de0083814100830873008001780030
:1044f000d3037800cf3bde001403780006034300ab
:10450000068a730013027800040242001003780048
:104510004f33de0086097200900178000388410065
:104520000201e90091017800ef8f5100eaff3600a7
:104530001000370080017800530378004f33dd000e
:104540001002d10004087300640240009403780054
:10455000cf3bdd001303d10086897300110378007f
:104560004f33dd009401d100030a73009108d1009c
:104570000201e80091017800ff8f5100edff3e003d
:10458000ef88610091887200020078000000060048
:10459000881f7800000478000040eb000054980069
:1045a000380090001040780091c6b300814f500051
:1045b0002a00320013003c00f1c05000814f50002f
:1045c0002600320005003c0051c2b300814f50006c
:1045d0007500320031c5b3001b00370031c6b3008f
:1045e000814f50001b0032008140e800814f500095
:1045f0001a003200e9c05000814f500087003a0095
:104600008400370001c7b300814f500007003c0011
:104610008140e900814f500010003d008140e900d9
:10462000814f50007d003a000f00370051c7b300a2
:10463000814f500009003200e3c04000814f50001c
:1046400006003200e5c05000814f500073003a0070
:10465000510037008000eb00500037000800780060
:10466000710007006e003700e8489000100020003d
:104670000104e0006a003a00f8489000c3c6b300a5
:104680002801900083cf5000340032000a003c0023
:10469000e4c1510083cf50002a003200a0c6b3000d
:1046a00080cf50001a0032006840500080cf500088
:1046b00031003a000a00370043c7b30083cf5000ef
:1046c00020003200a0c7b30080cf50001900320094
:1046d0006940500080cf500027003a0007003700a3
:1046e000280090000080e900200498001000780065
:1046f000084c9000084878002500370028009000fa
:104700000080e900200498001000780003003700c2
:104710000281e9002204980012007800480290000b
:10472000cfa2de00612bb9000498be000690be0047
:10473000170037000281e900220498001200780077
:10474000110037000281e9002204980092007800ed
:104750004804900088087800310037000281e900a1
:10476000220498009200780048019000cf91de006a
:104770008288be002a003700280090000080e900ef
:104780002004980010007800480490000808780081
:1047900010002000220037001100200008007800df
:1047a0009c0107001e003700480090000000e80050
:1047b0004004980098017800120020008000eb006f
:1047c0001800900003000100800078001000200015
:1047d00052022000828f50001100320048009000e9
:1047e000e18f4000070032000000e900400498001b
:1047f000980178000001eb00180090000300010010
:10480000060037000000e90040049800010078002d
:10481000030037008080eb00e0ff37000000eb0072
:104820004f047800000006002f02b000889fbe00f1
:104830008a9fbe008c1f78008e1f780000047800cd
:10484000680090000000e00001003c00f0ff27003d
:104850000000e90050049800480090000000e800c3
:104860004004980098017800120020008000eb00be
:10487000180090000300010000057800b00220003d
:10488000800f5500030032000080e800800f5500c3
:1048900015003a00cad79f00d80090008100e900b7
:1048a0005104980048009000090033000000e8001f
:1048b0004004980098017800120020008000eb006e
:1048c0001800900003000100000578000300370085
:1048d0000000e800400498000085eb005efd2f001a
:1048e0000f074700020037004efd2f000f0747005b
:1048f000380090009000fb0070fc2100b5fc070020
:1049000071fc21000100500001fc2100e14578000c
:104910008b05fb0000032000800f550033003a0098
:10492000d80090008100e9005104980048009000f0
:104930000c0033000000e800400498009801780063
:10494000120020008000eb0018009000030001001e
:104950000005780080072000800f55000800320015
:10496000040037000000e800400498000085eb00d8
:104970001b00370080052000800f550018003a000a
:104980000b00e00002003200f08f550002013a00f7
:10499000d80090008100e900510498004800900080
:1049a000090033000000e8004004980098017800f6
:1049b000120020008000eb001800900003000100ae
:1049c00000057800030037000000e800400498006c
:1049d0000085eb000b0120000046eb000d003700c6
:1049e0000b00e000e9003200eb0037000046eb006e
:1049f000a90020000b00e0001a003200ea8f5500e9
:104a000002003200e88f550002003a008b04780063
:104a1000140037006901200012003700d800900010
:104a20008100e9005104980048009000090033001b
:104a30000000e8004004980098017800120020006f
:104a40008000eb00180090000300010000057800d2
:104a5000030037000000e800400498000085eb00e8
:104a60001cc0b30000032000800f5500ebff320094
:104a70000c04e00018003200005f780016003700d8
:104a80006d805700800f5700010031000a5f7800e9
:104a9000d80090008100e90051049800480090007f
:104aa000090033000000e8004004980098017800f5
:104ab000120020008000eb001800900003000100ad
:104ac00000057800030037000000e800400498006b
:104ad0000085eb001cc0b300e10f45000f00320061
:104ae000090178008a007800f0fc21002ffc070003
:104af0000000e000e2ff3a00480090000000e900fa
:104b000040049800980178000001eb008a007800ca
:104b100018009000030001000300370048009000d7
:104b20000000e900400498000c04e00008003a008e
:104b30008004eb0040fd2f000f004000800f570065
:104b40008b003a00e10f450089003a0087003700ea
:104b5000004feb0068489000190020000004e000be
:104b600083003a00380090001040780041c6b3003e
:104b7000814f500003003200e5c04000814f5000db
:104b800035003a000b0178008000eb0040fd2f005b
:104b90000f0040009201070014c0b30004549800b5
:104ba000784a9000c6c6b300a8029000864f520013
:104bb000240032000a003c0064435300864f520038
:104bc0001c00320006c3e800864f5200120032007b
:104bd00068435300864f52005e003a000a003700d7
:104be00046c7b300864f52001200320066434300ae
:104bf000864f52000f00320069435300864f520027
:104c000054003a00040037008582e900250498002a
:104c100015027800380037008582e90025049800e5
:104c200015027800009abe000292be001900200012
:104c30004f0037008582e9002504980015027800ae
:104c4000480037008582e9002504980015027800a5
:104c5000008abe00f5ff37000b0178008000eb00f2
:104c600040fd2f000f004000b901070009549800d3
:104c700038039000a802900004c7b300964f1200ba
:104c80002a003200784a9000c6c6b300864f520010
:104c90002b0032000a003c0064435300864f520050
:104ca0002200320006c3e800864f5200190032008d
:104cb00025c6b300854f520026003a000a0037008f
:104cc00046c7b300864f52001800320066434300c7
:104cd000864f52001500320015c7b300854f5200b1
:104ce0001c003a0006003700280290000482e90008
:104cf0002404980014027800004a7800cbff3700a3
:104d0000280290000482e90024049800140278002c
:104d1000c4ff37008582e900250498001502780059
:104d2000009abe000292be00110037008582e900a1
:104d30002504980015027800000a78000c0037005e
:104d40008582e9002504980015027800008abe00db
:104d500007003700280290000482e900240498002c
:104d600014027800000a7800b0ff37008a04780047
:104d7000090078004f0778004f0678004f05be0005
:104d80004f04be002f02b100000006008b0020007f
:104d90001cc0b3001dff37001cc0b30017ff370055
:104da000110037008001780010427800d5c2b300ae
:104db000d3cf120008003a00814f520003003e009a
:104dc000a041900083cf500010003600e301400066
:104dd0006301510003003700814f52000b00320085
:104de0000201e90003007800e20f5100edff3e00f0
:104df00003003700b0cf1000050032000201e900c7
:104e00000200e000fbff3a00000005001000050072
:104e100010000500f0874700889fbe008a9fbe00f3
:104e20008c9fbe008e1f78000004be00f84d9000dd
:104e30000046eb000900e00025003d00380090002e
:104e40000000e8003004980090407800ccef9f000c
:104e5000e2c5b30082cf500003003a000000e80032
:104e600030049800c1ef9f00b8069000d0c5b30091
:104e70009d4f100002003a000d00e80001003700cd
:104e80000d007800d105200052fb0700c0b79f003d
:104e90000000eb00cfb097000100e000c600320038
:104ea0000d8550000046eb00e20f5500080034006d
:104eb0000a81e9000d00e800d10220003bfb070059
:104ec0001cc0b3000000e00001003a000046eb0007
:104ed000680090000000e00004003c00100020008a
:104ee0000900e00001003200f0ff2700cbc6b2004d
:104ef0008b85fb008b05e900cf5dde005004980038
:104f0000684890000004e0000c003a00280090007f
:104f10000b00e000050032000080e900200498004a
:104f200010007800b0b79f00040037000080e9004f
:104f30002004980010007800d0b79f000047eb00d5
:104f4000fbb79f008c457800650037000900e00042
:104f5000030034000d00780017f407001f0037002d
:104f60000900e0001f0032000b04e0000d003a00d1
:104f70004fe997000204e00005003a000a017800ba
:104f80008d0078003800900008fb07000c00370007
:104f90000a0178008d0078003800900003fb0700bc
:104fa0000e0037004fe897000004e00007003a00c9
:104fb0000a0178008d0078003800900078ff070023
:104fc0000000e00007003a005a0037000a017800ac
:104fd0008d0078003800900071ff07000000e000ad
:104fe00054003a00ffb097000100e00009003a00c9
:104ff000684890000004e00038003a005fb1970074
:105000000d597800d2b79f0010c0b300005498002b
:1050100032003700cde79f008d06fb000d067800bb
:105020000cf0a7000c06ea000c06ea004f66de0052
:1050300005003a000d00e00003003a007c805700b4
:1050400033f307000006e8007b8257001e002000b3
:10505000890278008b4478008405780010003700be
:105060000e07e900cb00fb0048009000e18f4000f4
:10507000090032000000e90040049800980178001f
:105080000001eb001800900085bf9f0003000100a5
:105090008fba9700020037000000e9004004980032
:1050a0008e0f5600eeff35008945780085047800a4
:1050b000684890000004e00005003a003fb0970007
:1050c0000d187800b0b79f0010c0b30000549800ce
:1050d000680090000000e900600498002ec0b30052
:1050e000d80090008100e900510498004800900029
:1050f0000c0033000000e80040049800980178009c
:10510000120020008000eb00180090000300010056
:1051100080067800e18f46008cff3a00ffb59700cb
:105120002b003700ffb597000000e800400498000e
:1051300027003700ffb59700480090000000e90005
:1051400040049800980178000001eb008d00780081
:1051500018009000030001000900e0000200320086
:10516000e24f5700050032000e07fb000080eb0005
:1051700011003200100020000f0037006848900036
:105180000004e00007003a000b00e00003003200da
:10519000bfb097008008eb00020037005fb19700b6
:1051a0000b497800100020000900e00002003d00db
:1051b000cfb09700310498004f0778004f06be002b
:1051c0004f05be004f04be000f01b10000000600f5
:1051d000480090000000e90040049800deff37001e
:1051e000e4874700889fbe008a9fbe008c1f78001e
:1051f0008e1f78000005780001077800020678000d
:105200000e00e00001003a006e8757008a05780022
:105210008b047800890578003b4478000800fb0087
:1052200065f307000000e000f9ff3a00d0c2b300c8
:10523000804f54000300320000c0e900804f54004a
:1052400002003a008904e8000100370000447800b9
:105250000c0178008e007800090078003c000700ff
:105260009e8f540001003a000a0f78009e0f5500ef
:1052700005003a00e00f5000e08f5800e00f5900a1
:10528000e08f590018003a00b4c2b300844f5400b4
:105290000a003a00f4ff2f00f5ff2f00f6ff2f0061
:1052a000f7ff27000400e1000588e1000690e10017
:1052b0000798e1000c003e001f003700d4c2b30085
:1052c000844f54001c003a006022b8000600200001
:1052d000070028000400e1000588e1000690e100d5
:1052e0000798e100090036002002200010458800e0
:1052f0006b404000804f54000b003a006000b80043
:1053000002002000030028000b0037006022b800d4
:105310006033b8000000520081805a0002015b0037
:1053200083815b0004003700f0ff2f00f1ff2f00a6
:10533000f2ff2f00f3ff27004f0778004f06780099
:105340004f05be004f04be004f00b1000000060034
:105350000f02b000889fbe008a9fbe008c9fbe00d7
:105360008e1f780080b79f000107780082067800c2
:1053700000047800080678000c04780038407800b3
:10538000e0e79f00804078000100fb000af307007f
:105390000000e000f7ff3a00d0c2b3006fe19700d1
:1053a000804f51000300320000c0e900804f5100df
:1053b00002003a000c06e80001003700e0e79f0019
:1053c0000d00e00005003500e18f560003003200bb
:1053d00040022000808f5600070034006044b8006f
:1053e0006055b8000e00e000970032000fb2970041
:1053f000040f7800940037000d00e0000e0032002a
:10540000f08f56001a003a0000c3b3009c4f100002
:1054100017003a001c40900081c7b300814f500034
:105420000300320081c5b300814f500010003a00e4
:105430000c86e8000e003700ad00200000c3b3006a
:105440009c4f10000a003a001c40900081c7b30036
:10545000814f5000040032008d00200081c5b30050
:10546000814f500002003a000c86e8000d01200038
:105470000c007800800078000100780002c3b300bf
:10548000b04f1100fbff3200e1af9f0081027800b6
:1054900095b79f006044b8006055b8008cbf9f006e
:1054a0001c00370081e7210081405000e1df9f00b0
:1054b000616ab900612bb9000800be000a01be0094
:1054c000e4020700efda97000502fb00cfa2de003e
:1054d000612bb900c4b79f00d5b79f00e6b79f0006
:1054e000f7b79f00a8af9f00b9af9f00caaf9f005a
:1054f000dbaf9f004fb29700dfb297006fb397000a
:10550000ffb397000004420081844a0002054b006b
:1055100083854b009fb29700a5b79f0005037800d5
:105520003600fb0096b79f00abf207000d01780034
:105530008000780080e721009cf907000000e0006f
:10554000d8ff3a000fbe9700afb39700870f560001
:1055500007003a006044b8006055b8000e00e00053
:10556000390032000fb697000c0f78003600370074
:105570002fb097006fa9970082005000d0e921005a
:1055800060c07e000000fb0000805000200033005f
:1055900019003a006fda97000400fb00cf80de00ac
:1055a0006109b9000000540081805c0002015d00c7
:1055b00083815d000040e10001c8e10002d0e1000c
:1055c00003d8e1000c003900616ab900612bb90011
:1055d000370207002faa9700bfaa97004fab97008a
:1055e000dfab97000400e1000588e1000690e100d0
:1055f0000798e100060032002002200010458800d4
:10560000f8ff2f00f9ff2f000805be000a00370041
:10561000d0c2b300efe2970080cf520006003a00fc
:105620006000b8006011b800080450008984580078
:105630000a0559008b8559000e00e0000200320077
:105640002fb39700060f78000800be000a01be00c5
:105650004f0778004f06be004f05be004f04be0046
:105660000f02b100000006008f1fd10020030700c9
:105670008f87e9000000e00000000600809feb003b
:105680001b0307008f87e9000000e0000000060010
:105690002800fa00889fbe008a9fbe008c9fbe0033
:1056a00003866b00800007006400e10044003200c4
:1056b0006408e1004a0032006100e1004600320067
:1056c0006108e10049003200ec0647006000b800c4
:1056d0003d02be003d03be00f48657006011b800d5
:1056e0003d04be003d05be007d0320000b003700d9
:1056f0000000a0008d06e900130032000402420001
:1057000085824a0006034b0087834b00000040005f
:10571000818048000201490083814900080252004b
:1057200089825a000a035b008b835b00f0ff3b0019
:105730000802420089824a000a034b008b834b0017
:105740008d06e900edff3a008482720086827200c5
:10575000f707b200878272000100320015002000b6
:105760001e0490003e0b900006035400e63fb0007c
:105770000368a300070032000000a7000500a00096
:105780008301d1000281d3008180d3000080d30047
:105790000603e8008301d1000281d3008180d30099
:1057a0000080d3000002eb000482d2001200070048
:1057b00003f0a1000cf0a70003f0a0004e0037009a
:1057c000640247006408e100480032003400be0073
:1057d0003401be00f6ff37006108e10043003200eb
:1057e0006011b8006000b800f1ff370003ff270028
